:100000000C9463000C948B000C948B000C948B006C
:100010000C948B000C948B000C948B000C948B0034
:100020000C948B000C948B000C948B000C94BF03ED
:100030000C948B000C948B000C948B000C948B0014
:100040000C9475030C948B000C9447020C942102C1
:100050000C948B000C948B000C948B000C948B00F4
:100060000C9414050C948B00000000002400270061
:100070002A00010204081020408001020408102018
:10008000010204081020040404040404040402020D
:100090000202020203030303030300000000250021
:1000A00028002B000000000023002600290000008B
:1000B0000008000201000003040700000000000027
:1000C000000083137F1311241FBECFEFD8E0DEBFE3
:1000D000CDBF12E0A0E0B1E0E0E3FFE202C0059096
:1000E0000D92AC35B107D9F724E0ACE5B2E001C020
:1000F0001D92A639B207E1F710E0C2E6D0E004C0D5
:100100002197FE010E946815C136D107C9F70E94E8
:10011000F00B0C948B170C940000FC01538D448D54
:10012000252F30E0842F90E0821B930B541710F0A2
:10013000CF96089501970895FC01918D828D9817AF
:1001400061F0828DDF01A80FB11D5D968C91928DBB
:100150009F5F9F73928F90E008958FEF9FEF0895B8
:10016000FC01918D828D981731F0828DE80FF11D81
:10017000858D90E008958FEF9FEF0895FC01918D9C
:10018000228D892F90E0805C9F4F821B91098F7395
:10019000992708958EED92E00E94BE0021E0892B00
:1001A00009F420E0822F0895FC01848DDF01A80F5F
:1001B000B11DA35ABF4F2C91848D90E001968F738F
:1001C0009927848FA689B7892C93A089B1898C91AE
:1001D00080648C93938D848D981306C00288F38974
:1001E000E02D80818F7D80830895EF92FF920F93A1
:1001F0001F93CF93DF93EC0181E0888F9B8D8C8DD3
:10020000981305C0E889F989808185FD24C0F62E00
:100210000B8D10E00F5F1F4F0F731127E02E8C8D99
:10022000E8120CC00FB607FCFACFE889F989808183
:1002300085FFF5CFCE010E94D400F1CF8B8DFE015A
:10024000E80FF11DE35AFF4FF0820B8FEA89FB891B
:100250008081806207C0EE89FF896083E889F9891F
:1002600080818064808381E090E0DF91CF911F9155
:100270000F91FF90EF900895CF93DF93EC01888D5D
:100280008823C9F0EA89FB89808185FD05C0A8899A
:10029000B9898C9186FD0FC00FB607FCF5CF808120
:1002A00085FFF2CFA889B9898C9185FFEDCFCE016A
:1002B0000E94D400E7CFDF91CF91089580E090E0D5
:1002C000892B29F00E94CA0081110C940000089526
:1002D000833081F028F4813099F08230A1F00895C4
:1002E0008730A9F08830B9F08430D1F48091800053
:1002F0008F7D03C0809180008F7780938000089568
:1003000084B58F7702C084B58F7D84BD08958091B8
:10031000B0008F7703C08091B0008F7D8093B000D4
:1003200008953FB7F8948091DA029091DB02A09192
:10033000DC02B091DD0226B5A89B05C02F3F19F065
:100340000196A11DB11D3FBFBA2FA92F982F882755
:10035000820F911DA11DB11DBC01CD0142E0660FB0
:10036000771F881F991F4A95D1F7089585ED8093CF
:10037000BC008091BC0084FDFCCF1092AE020895B9
:1003800040918802262F30E0240F311D21323105A3
:10039000DCF42091AE022430C9F4FC0180E090E04E
:1003A000861758F4309188022191DC01AA59BD4F7B
:1003B000A30FB11D2C930196F3CF80918802680F93
:1003C0006093880280E0089581E0089582E00895B6
:1003D00008958FEF9FEF08958FEF9FEF089580911D
:1003E000650290E09195819591090895CF93DF93EF
:1003F00000D0CDB7DEB7CB01642F49835A830E946A
:10040000C0014981842F5A81952F0F900F90DF9161
:10041000CF910895CF93DF931F92CDB7DEB7698355
:1004200061E0CE0101960E94C00181E090E00F9052
:10043000DF91CF910895089580E090E008950E94A3
:1004400065171F920F920FB60F9211242F933F93AF
:100450004F935F936F937F938F939F93AF93BF93CC
:10046000EF93FF938EED92E00E94D400FF91EF9105
:10047000BF91AF919F918F917F916F915F914F91BC
:100480003F912F910F900FBE0F901F9018951F92C4
:100490000F920FB60F9211242F938F939F93EF9388
:1004A000FF93E091EE02F091EF028081E091F4027F
:1004B000F091F50282FD12C090818091F7028F5F6A
:1004C0008F732091F802821751F0E091F702F0E06B
:1004D000E252FD4F958F8093F70201C08081FF911A
:1004E000EF919F918F912F910F900FBE0F901F90C2
:1004F0001895CF93DF93282F30E0F901E255FF4F95
:100500008491F901EE58FF4FD491F901EA57FF4F5A
:10051000C491CC2391F081110E946801EC2FF0E08E
:10052000EE0FFF1FEC55FF4FA591B491EC91ED2319
:1005300081E090E021F480E002C080E090E0DF9173
:10054000CF910895862F0C9479021F93CF93DF9358
:10055000282F30E0F901E255FF4F8491F901EE5860
:10056000FF4FD491F901EA57FF4FC491CC23C9F052
:10057000162F81110E946801EC2FF0E0EE0FFF1F93
:10058000E656FF4FA591B4918FB7F894111105C0AD
:100590009C91ED2FE095E92302C0EC91ED2BEC93BB
:1005A0008FBFDF91CF911F910895862F642F0C94F8
:1005B000A502CF93DF93EC0160E08E810E94A5023B
:1005C00061E08E810E94A50260E08E810E94A502FA
:1005D0008BE891E00197F1F7DF91CF910895CF93E8
:1005E000DF9390E0FC01EE58FF4F2491FC01EA57A5
:1005F000FF4F8491882361F190E0880F991FFC01DF
:10060000E859FF4FC591D491FC01E656FF4FA591E3
:10061000B491611109C09FB7F89488812095822315
:100620008883EC912E230BC0623061F49FB7F8945D
:100630003881822F809583238883EC912E2B2C93F5
:100640009FBF06C08FB7F894E8812E2B28838FBFF9
:10065000DF91CF910895862F642F0C94EF028F9233
:100660009F92AF92BF92CF92DF92EF92FF926B0177
:100670007C010E9491014B015C01C114D104E10491
:10068000F104F1F00E949101DC01CB018819990974
:10069000AA09BB09883E9340A105B10570F321E08A
:1006A000C21AD108E108F10888EE880E83E0981E8E
:1006B000A11CB11CC114D104E104F10419F7DDCF70
:1006C000FF90EF90DF90CF90BF90AF909F908F9072
:1006D00008952FB7F8946091D6027091D702809157
:1006E000D8029091D9022FBF08951F920F920FB692
:1006F0000F9211242F933F938F939F93AF93BF93A8
:100700008091D6029091D702A091D802B091D902DF
:100710003091D50223E0230F2D3720F40196A11D3F
:10072000B11D05C026E8230F0296A11DB11D20931F
:10073000D5028093D6029093D702A093D802B093AB
:10074000D9028091DA029091DB02A091DC02B09193
:10075000DD020196A11DB11D8093DA029093DB02A8
:10076000A093DC02B093DD02BF91AF919F918F9176
:100770003F912F910F900FBE0F901F9018951F92D1
:100780000F920FB60F9211242F933F934F935F93C5
:100790006F937F938F939F93AF93BF93EF93FF9349
:1007A0008091D40287FF05C01092850010928400CA
:1007B0001BC02091D402022E000C330B8091E70362
:1007C00090E02817390784F48091D402082E000C99
:1007D000990BFC01EE0FFF1F8E0F9F1FFC01ED53C5
:1007E000FC4F808186FD15C08091D4028F5F80937D
:1007F000D4022091D402022E000C330B8091E70327
:1008000090E028173907C4F48091D4028C3064F149
:1008100013C08091D402082E000C990BFC01EE0F3E
:10082000FF1F8E0F9F1FFC01ED53FC4F808160E086
:100830008F730E94A502D8CF80918400909185008B
:10084000049680349C4918F480E49CE905C08091AA
:10085000840090918500049690938900809388008D
:100860008FEF8093D4023BC02091840030918500AB
:100870008091D402082E000C990BFC01EE0FFF1F93
:100880008E0F9F1FFC01ED53FC4F81819281820FDF
:10089000931F90938900809388008091D402082E42
:1008A000000C990BFC01EE0FFF1F8E0F9F1FFC0128
:1008B000ED53FC4F808186FF12C08091D402082E38
:1008C000000C990BFC01EE0FFF1F8E0F9F1FFC0108
:1008D000ED53FC4F808161E08F730E94A502FF9170
:1008E000EF91BF91AF919F918F917F916F915F91A8
:1008F0004F913F912F910F900FBE0F901F90189521
:1009000008958EBD00000DB407FEFDCF8EB508958D
:100910008CBD9DBD0895CF92DF92EF92FF920F9311
:100920001F93CF93DF937C016C0187E0C80ED11C2D
:10093000C0E0D0E0062F10E0B8010C2E02C0759583
:1009400067950A94E2F76170F60181916F010E9448
:10095000A5022196C430D10579F7C701DF91CF9167
:100960001F910F91FF90EF90DF90CF900C94D902E0
:10097000CF92DF92EF92FF920F931F93CF93DF936B
:10098000EC01F62E642F8C810E94A5028D818F3F91
:1009900019F060E00E94A5028F850F2D10E084FF02
:1009A00025C06E0187E0C80ED11CE12CF12CB801E6
:1009B0000E2C02C0759567950A94E2F76170F601F6
:1009C00081916F010E94A502FFEFEF1AFF0A88E0F4
:1009D000E816F10461F7CE01DF91CF911F910F91DD
:1009E000FF90EF90DF90CF900C94D902B80184E093
:1009F000759567958A95E1F7CE010E948B046F2D5E
:100A0000CE01DF91CF911F910F91FF90EF90DF907A
:100A1000CF900C948B0441E00E94B80481E090E0F8
:100A2000089540E00C94B8041F920F920FB60F92F5
:100A300011242F933F934F935F936F937F938F93E3
:100A40009F93AF93BF93EF93FF938091B900887FFB
:100A5000803609F49CC068F5883209F45BC090F4D4
:100A6000803109F454C038F4882309F4F6C0883082
:100A700009F44DC0F6C0883109F44CC0803209F445
:100A80005DC0EFC0803409F468C048F4803309F4D5
:100A900055C0883309F0E5C08093AD02D8C08035D9
:100AA00009F44FC0883509F45DC0883409F0D9C015
:100AB000D6C0883909F4C7C0A8F4883709F467C0DC
:100AC00038F4883609F463C0803709F460C0C9C0BF
:100AD000883809F4B8C0803909F45FC0803809F05B
:100AE000C0C05BC0803B09F486C038F4803A09F48A
:100AF00066C0883A09F47FC0B4C0803C09F4A7C03E
:100B0000883C09F4A4C0883B09F48AC0AAC080913B
:100B1000D30210C09091D2028091D102981770F543
:100B2000E091D20281E08E0F8093D202F0E0EF5488
:100B3000FD4F80818093BB0085EC86C08093AD0221
:100B40008EC0E091D20281E08E0F8093D20280911C
:100B5000BB00F0E0EF54FD4F80839091D202809172
:100B6000D1026EC0E091D20281E08E0F8093D2025A
:100B70008091BB00F0E0EF54FD4F80838091B00284
:100B800081116DC081E08093AF0284EA61C083E08F
:100B90008093AE021092AC02CFCF8091AC02803233
:100BA00008F051C0E091AC0281E08E0F8093AC025E
:100BB0008091BB00F0E0E457FD4F8083BDCF85EC12
:100BC0008093BC001092AE028091AC02803230F46F
:100BD000E091AC02F0E0E457FD4F10826091AC026E
:100BE00070E0E0918A02F0918B028CE892E0099526
:100BF0001092AC0236C084E08093AE02109289025B
:100C000010928802E0918602F09187020995809106
:100C10008802811105C081E08093880210926602EB
:100C2000E091890281E08E0F80938902F0E0EA5919
:100C3000FD4F80818093BB00909189028091880252
:100C4000981708F479CF85E88093BC000AC085EC3A
:100C50008093BC001092AE0204C01092AD020E94BC
:100C6000B601FF91EF91BF91AF919F918F917F91CD
:100C70006F915F914F913F912F910F900FBE0F9009
:100C80001F901895CF93DF93EC0160E080E00E9405
:100C9000F40761EC71E08EE694E00E94EE0B60E0F8
:100CA00080E00E94F4074C815D81688179818EE645
:100CB00094E0DF91CF910C946209CF92DF92EF9292
:100CC000FF92CF93DF93EC016BE472E08EED92E044
:100CD0000E94DC0BC03282E0D8070CF03FC0D7FD89
:100CE00006C0C53BD1052CF0C4EBD0E002C0C0E08B
:100CF000D0E08091E90328E830E06901C81AD10802
:100D000087FDD394CC0CDD1CCC0CDD1C0D2C000C11
:100D1000EE08FF088091EA0328E532E0281B31093C
:100D200087FD3395220F331F220F331FC901330F65
:100D3000AA0BBB0B9C01AD012C193D094E095F09A3
:100D4000DE010E940E1524EB30E040E050E00E94EE
:100D5000E414C20ED31EE41EF51EE6019091E803D2
:100D60009C3098F58091E90348E850E0481B510910
:100D700087FD5395440F551F440F551FC417D507C2
:100D80008CF08091EA0328E532E0281B310987FDC9
:100D90003395220F331F220F331FAE012C173D074F
:100DA0000CF4A90142505109440F551F2FB7F89474
:100DB000892F90E0FC01EE0FFF1F8E0F9F1FFC019B
:100DC000ED53FC4F528341832FBF6FE070E080E012
:100DD00090E0DF91CF91FF90EF90DF90CF900C9457
:100DE0002F0396E0899FD0011124A150BC4F90960B
:100DF0007C936E935F9791E091969C9391979091DD
:100E00006B04E0916C04F0916D04992339F03097F4
:100E100051F0811108C080911B0404C0309719F073
:100E20005C968C9109940895EF92FF920F931F9313
:100E3000CF93DF93EC01623018F08F8588608F8745
:100E40006B8B1C8A80E48D8B80E18E8B80E58F8B91
:100E500061E08C810E94EF028D818F3F19F061E08B
:100E60000E94EF0261E08E810E94EF027E0187E026
:100E7000E80EF11C00E010E08F8584FD03C084E0E3
:100E800090E002C088E090E0081719074CF461E098
:100E9000F70181917F010E94EF020F5F1F4FECCF9E
:100EA0008BE39DE00197F1F760E08C810E94A50241
:100EB00060E08E810E94A5028D818F3F19F060E075
:100EC0000E94A5026F8564FD1DC063E0CE010E94F3
:100ED0008B040BE416E4C8010197F1F763E0CE013F
:100EE0000E948B04C8010197F1F763E0CE010E94D4
:100EF0008B0483E592E00197F1F762E0CE010E9456
:100F00008B0416C06062CE010E9411058BE496E44A
:100F10000197F1F76F856062CE010E94110583E5AC
:100F200092E00197F1F76F856062CE010E94110592
:100F30006F856062CE010E94110584E0888B6CE0B1
:100F4000CE010E94110561E0CE010E9411058BE3E4
:100F50009FE10197F1F782E0898B66E0CE01DF9196
:100F6000CF911F910F91FF90EF900C941105EEED32
:100F7000F2E0A089B18982E08C93A485B5851C92AA
:100F8000A685B7858FEC8C93108EA489B58986E0F1
:100F90008C93A289B3898C9180618C93A289B38947
:100FA0008C9188608C93A289B3898C9180688C9392
:100FB0000288F389E02D80818F7D80830895CF930F
:100FC000DF93FC0144815581608171818EED92E057
:100FD0000E946209EC018EED92E00E94D80B8C0F0A
:100FE0009D1FDF91CF910895643008F063E09091E8
:100FF0008104691710F06FEF690FE62FF0E0E259F6
:10100000FB4F9489682F690F60688EE694E00C941A
:1010100011050F931F93CF93DF93082F162F83E5AE
:1010200090E00E948804CBEED3E060E08C850E94C3
:10103000A502802F8E770E948104812F0E94810457
:1010400061E08C850E94A502DF91CF911F910F91E5
:101050000C9480040F931F93CF93C82F83E590E0E7
:101060000E9488040BEE13E060E0F80184850E9482
:10107000A5028C2F8E7780680E94810480E00E94F8
:101080008104C82F61E0F80184850E94A5020E94B6
:1010900080048C2FCF911F910F9108958F929F9272
:1010A000AF92BF92CF92DF92EF92FF926B017C01E1
:1010B0000E9469034B015C01C60ED71EE81EF91E93
:1010C0000E946903681579058A059B0528F0C616F4
:1010D000D706E806F906A0F7FF90EF90DF90CF90D3
:1010E000BF90AF909F908F9008950F931F93CF93D1
:1010F000DF93C82FD62F86E0C89FF0011124E1505E
:10110000FC4F11A2878D90A181309105F1F01CF464
:10111000892B49F043C082309105A9F10397F1F57D
:1011200060E070E034C06623C9F161E070E08C2FAC
:101130000E94F1060E94690360935704709358045B
:101140008093590490935A0429C00E946903009126
:101150005704109158042091590430915A04AB015E
:10116000BC01401B510B620B730B80916904909181
:101170006A04A0E0B0E084179507A607B70718F443
:1011800062E070E004C0D11109C063E070E08C2F10
:10119000DF91CF911F910F910C94F106DF91CF91C8
:1011A0001F910F910895CF93DF93EC0141E050E040
:1011B0006CEE71E00E94DD0A811103C0CE010E9435
:1011C0000B0BCE01DF91CF910895CF92DF92FF926A
:1011D0000F931F93CF93DF931F92CDB7DEB7082FE6
:1011E000162F83E590E079830E94880460E0809167
:1011F000F7030E94A50282E10E948104F12EC12E14
:101200007981D72E8C2D8F19801730F4F6018191BA
:101210006F010E948104F6CF61E08091F7030E9484
:10122000A5020F90DF91CF911F910F91FF90DF905A
:10123000CF900C948004CF93C82F0E942A08682F67
:1012400060688C2FCF910C940908EF92FF920F9356
:101250001F93CF93DF937C01C62F8A0160E082E069
:101260000E94090864E08AE00E94090884E10E9463
:101270001B09B7018C2F0E94E50863E082E00E9401
:101280000908C8E8D3E18AE00E942A0882FD04C068
:101290002197C9F783E00FC060E082E00E9409084F
:1012A00084E40E942A08F801808382E40E942A08CC
:1012B000F801818380E0DF91CF911F910F91FF9022
:1012C000EF900895CF92DF92EF92FF920F931F93CA
:1012D000CF93DF936C017A018B01C0E0D0E0CE1593
:1012E000DF0589F0D8016D918D01D601ED91FC915A
:1012F0000190F081E02DC6010995892B11F47E0142
:1013000002C02196ECCFC701DF91CF911F910F91C1
:10131000FF90EF90DF90CF9008956115710579F0FF
:10132000FB0101900020E9F73197AF01461B570BF5
:10133000DC01ED91FC910280F381E02D099480E0C5
:1013400090E008950F931F93CF93DF93EC01888172
:101350009981009729F02A813B812617370788F465
:101360008B016F5F7F4F0E949B16009761F09983FE
:1013700088831B830A832C813D81232B11F4FC017C
:10138000108281E001C080E0DF91CF911F910F9129
:1013900008957F928F929F92AF92BF92CF92DF92E9
:1013A000EF92FF920F931F93CF93DF934C01F62E92
:1013B000EA01590168010115110519F0F801908140
:1013C00001C090E0192FF0E1EF9E100D112460E0B4
:1013D00082E00E9409086FE788E00E94090884E122
:1013E0000E941B09B4018F2D0E94E508612F8AE13C
:1013F0000E9409086CE082E00E9409088AE10E94CC
:101400001B0900ED17E088E00E942A08982F9073CE
:1014100031F480FD77C001501109A9F773C08CE049
:101420000E942A08F82E837109F06EC0209709F4F3
:1014300065C0A114B10409F461C084E10E942A08C6
:10144000182FF5018081811708F460C010831123E3
:1014500009F44BC083E590E00E94880460E080912D
:10146000F7030E94A5020FEF010F82E90E94810499
:101470007C2E8C2E9D2EAA24A394B12C882D871906
:10148000801730F581111BC0EE20C9F09E2D10E0B1
:10149000983048F49501092E01C0220F0A94EAF70A
:1014A000122B9F5FF5CF82E90E948104212F2095A6
:1014B000988192238123192F182B188305C082E964
:1014C0000E948104F4018083FFEF8F1A9F0AD6CF18
:1014D000C00FD11D80E00E948104888361E080916B
:1014E000F7030E94A5020E94800488E10E942A0856
:1014F0008770C114D10411F0F6018083F3FC08C099
:1015000080E007C083E005C081E003C084E001C043
:1015100082E0DF91CF911F910F91FF90EF90DF90CC
:10152000CF90BF90AF909F908F907F900895CF9372
:10153000DF93FC01C081D181209751F088818823FD
:1015400039F0082E000C990B0E946A178993F6CF88
:10155000DF91CF910895FC0124813581FB01448105
:1015600055812417350721F5FC0180819181FB010C
:1015700060817181009719F061157105A1F4611501
:10158000710549F0232BB1F0FB01808190E091952A
:10159000819591090AC0009769F0232B59F0FC014D
:1015A000808190E002C00E947B1721E0892B19F016
:1015B00020E001C021E0822F0895EF92FF920F9367
:1015C0001F93CF93DF93FC01248135816115710551
:1015D00011F480E019C041155105A9F07B01EC011F
:1015E0008A01020F131FB8010E94A209882389F300
:1015F000288139818C819D81B701820F931F0E94C0
:1016000084171D830C8381E0DF91CF911F910F918F
:10161000FF90EF900895CF93DF93EC01888199813B
:10162000009711F00E940316198218821D821C82F5
:101630001B821A82DF91CF910895EF92FF920F9350
:101640001F93CF93DF93EC017B018A01BA010E94C3
:10165000A209811104C0CE010E940B0B07C01D839B
:101660000C83B701888199810E948417CE01DF9194
:10167000CF911F910F91FF90EF900895CF93DF933B
:10168000EC016115710559F0FB0101900020E9F7AB
:101690003197AF01461B570B0E941D0B02C00E94E1
:1016A0000B0BCE01DF91CF910895CF93DF93EC0127
:1016B000FB018617970761F06081718161157105E3
:1016C00029F0448155810E941D0B02C00E940B0B22
:1016D000CE01DF91CF910895FC01808191810C941E
:1016E0000316FC0111821082138212821582148269
:1016F0000C94550BFC011182108213821282158208
:1017000014826115710551F0FB0101900020E9F789
:101710003197AF01461B570B0C941D0B08954F9248
:101720005F926F927F92EF92FF920F931F93CF93EE
:10173000DF93CDB7DEB7A1970FB6F894DEBF0FBE2B
:10174000CDBF7C01FA01CB0119A2223008F42AE0B6
:101750008E010F5D1F4F422E512C612C712CBF0149
:10176000A30192010E94C214F901CA01015011099A
:101770006A3014F4605D01C0695CD8016C93232B5E
:10178000242B252B61F7B801C7010E948D09A19672
:101790000FB6F894DEBF0FBECDBFDF91CF911F9182
:1017A0000F91FF90EF907F906F905F904F90089512
:1017B0006AE671E00C948D090F931F93CF93DF932A
:1017C000EC010E948D098C01CE010E94D80B800F84
:1017D000911FDF91CF911F910F9108950C948D0966
:1017E000CF93DF93CDB7DEB7A5970FB6F894DEBFE2
:1017F0000FBECDBF789484B5826084BD84B581600E
:1018000084BD85B5826085BD85B5816085BD8091CB
:101810006E00816080936E00109281008091810043
:10182000826080938100809181008160809381003B
:10183000809180008160809380008091B1008460FD
:101840008093B1008091B00081608093B00080915E
:101850007A00846080937A0080917A00826080931D
:101860007A0080917A00816080937A0080917A007A
:10187000806880937A001092C1001092BF0310928A
:10188000C0031092C1031092C20310927D03109204
:101890007E0310927F031092800368EB7BE080E070
:1018A00090E00E944E088EED92E09093BE038093EC
:1018B000BD030E94B7070E94690360937D03709384
:1018C0007E0380937F03909380036BE571E08091AA
:1018D000BD039091BE030E94EE0B6AE070E080E0D1
:1018E00090E00E944E0881E0809391030E94B70728
:1018F00062E08EE694E00E9414076DE671E0CE018E
:1019000001960E947A0BCE0101960E944206CE01FA
:1019100001960E946C0B1FB7F89480915C028111B4
:1019200027C0E0E9F0E08491ECE7F0E09491E82F43
:10193000F0E0EE0FFF1FE859FF4FA591B491EC9135
:10194000E92321F461E08AE00E94A50261E08AE0D7
:101950000E94EF028CB580618CBD8CB580648CBD1B
:1019600061E08DE00E94EF0261E08BE00E94EF02F7
:1019700080915C028F5F80935C021FBF61E0809169
:10198000F7030E94EF0261E08091F7030E94A50235
:1019900061E08091F8030E94EF028091F8030E94B9
:1019A0007902892B61F461E08091F8030E94A5021D
:1019B00062E370E080E090E00E942F030FC06FE0D0
:1019C00082E00E94090862E370E080E090E00E94FB
:1019D0002F0382E00E942A0884FDFBCF60E884E5A3
:1019E0000E94090869EA86E50E94090863E088E523
:1019F0000E94090868EE8AE50E94090860E48AE20C
:101A00000E9409086DE382E20E94090888E20E94B0
:101A10002A08982F9370933029F0682F636088E22A
:101A20000E94090860E871E08EED92E00E94DC0BF4
:101A30008EED92E00E94D80B8091E8038C3008F084
:101A400051C061E082E00E94EF028091E803E82F3C
:101A5000F0E09F01220F331FE20FF31FED53FC4F05
:101A60009081907C926090831092E9031092EA0337
:101A70006CE00E945C152CE0829FB001112440E0D4
:101A800050E09A01260F371FF901EE0FFF1F2E0FAE
:101A90003F1FF901ED53FC4F908196FD16C04F5F3B
:101AA0005F4F4C30510569F781110FC010928000D3
:101AB00082E0809381001092850010928400B19A98
:101AC00080916F00826080936F00E091E803F0E006
:101AD000CF01880F991FE80FF91FED53FC4F80814C
:101AE0008064808374EF872E99249394A12CB12C69
:101AF000E8EE4E2EE3E05E2E612C712C0E9469030D
:101B0000672B682B692B41F40E94690362307105D1
:101B10008105910508F404C10E9469036093610284
:101B200070936202809363029093640200915D025D
:101B300010915E0220915F02309160026017710780
:101B40008207930740F460935D0270935E02809376
:101B50005F029093600200915D0210915E022091FD
:101B60005F02309160026B017C01C01AD10AE20A67
:101B7000F30A970186010A3F11052105310508F492
:101B8000CFC060935D0270935E0280935F0290937A
:101B900060028092890390928A03A0928B03B09294
:101BA0008C0310928D0310928E0310928F0310926B
:101BB00090038091810390918203A0918303B0915F
:101BC00084038093850390938603A0938703B09347
:101BD00088030E946903609381037093820380935A
:101BE0008303909384030E94690360937D03709341
:101BF0007E0380937F03909380030E9469036B01AF
:101C00007C0167EA71E08091BD039091BE030E9460
:101C1000EE0B2AE041E050E060E070E08091BD030F
:101C20009091BE030E948F0B6EEA71E08091BD031C
:101C30009091BE030E94EE0B2AE0B701A6018091AD
:101C4000BD039091BE030E948F0B6DE372E0809103
:101C5000BD039091BE030E94EE0B80918103909191
:101C60008203A0918303B0918403B701A601481BAE
:101C7000590B6A0B7B0B2AE08091BD039091BE0348
:101C80000E948F0B6DE372E08091BD039091BE03C3
:101C90000E94EE0B40918103509182036091830377
:101CA000709184038091850390918603A0918703AE
:101CB000B0918803481B590B6A0B7B0B2AE080917B
:101CC000BD039091BE030E948F0B62EB71E0809187
:101CD000BD039091BE030E94EE0B0E946903AB010D
:101CE000BC012AE08091BD039091BE030E948F0B3E
:101CF00064EB71E08091BD039091BE030E94DC0B08
:101D000065E070E080E090E00E944E080E94690368
:101D10006093810370938203809383039093840381
:101D200061E080E00E94F4076BEB71E08EE694E0E6
:101D30000E94EE0B0E946903A30192010E94C2144B
:101D4000BA01A9012AE08EE694E00E948F0B81E09F
:101D500080936B040E94690300915B0410915C0402
:101D600020915D0430915E04AB01BC01401B510B1E
:101D7000620B730B8091670490916804A0E0B0E05F
:101D800084179507A607B70708F013C110E08091E4
:101D90006504181760F4E0916104F0916204E10FAA
:101DA000F11D62E080810E94EF021F5FF0CFF12CF5
:101DB00080916604F81608F068C0CF2CD12CE09111
:101DC0006304F0916404EC0DFD1D61E080810E94CC
:101DD000EF02E0916304F0916404EC0DFD1D60E0FE
:101DE00080810E94A50281E090E0A0E0B0E00F2C8D
:101DF00004C0880F991FAA1FBB1F0A94D2F79C0129
:101E00001C0120943094E12C80916504E81630F593
:101E10000E2D10E08091610490916204FC01E00FAE
:101E2000F11F80812CA33DA30E9479020C5F1F4FFC
:101E30002CA13DA1000F111FF801E150FC4F892B8F
:101E400029F480819181822B932B04C08081918120
:101E50008221932191838083E394D6CFE091630420
:101E6000F0916404EC0DFD1D61E080810E94A502EB
:101E70008091630490916404FC01EC0DFD1D60E011
:101E800080810E94EF02F39493CFEBE1F4E08FEFB7
:101E90009FEF23813481232B21F41082928381834D
:101EA0001582369624E0E735F20799F7F12C56E0D3
:101EB000D52E80916504F81608F053C0E12C0F2D43
:101EC00010E0000F111F095F1B4F20916604E216FE
:101ED00008F045C0F801608171810E2C02C0769532
:101EE00067950A94E2F761707727F29E90011124BA
:101EF0002E0D311DE0915F04F0916004E20FF31F9D
:101F0000A081EFEFF3E080E0458D568D4217530737
:101F100011F461701AC08F5F36968A30A9F7672B6B
:101F2000E1F0EBE1F4E080E090E04081411110C08D
:101F3000D89EF001D99EF00D1124E150FC4FA48FE2
:101F4000368F258F10A2178E61E00E94750805C09C
:101F5000019636968A30910541F7E394B6CFF39413
:101F6000A8CF80E090E010E0FC01E150FC4F21A1FF
:101F7000211111E006968C339105B1F70E94690397
:101F800060935B0470935C0480935D0490935E04A3
:101F9000112379F080912004882359F080911E0448
:101FA00090911F04019729F410911B04111104C092
:101FB00067C010926B0464C01A8219821C821B8253
:101FC0001E821D821A871B86BE01665F7F4FCE016F
:101FD00001960E943E0BCE0101960E94DF07CE01C2
:101FE00001960E946C0B1A3239F46CE671E089EFAD
:101FF00093E00E943E0B24C0133211F169EF73E0AD
:10200000CE0101960E94710B1A871B8641E050E0B9
:10201000BE01665F7F4FCE0101960E94DD0A8111ED
:1020200004C0CE0101960E940B0BBE016F5F7F4F73
:1020300089EF93E00E94550BCE0101960E946C0B34
:1020400069EF73E0CE0101960E94710B61E089E0B7
:102050000E94F40761EC71E08EE694E00E94EE0BC2
:1020600061E089E00E94F4074D815E8169817A8197
:102070008EE694E00E946209CE0101960E946C0BEC
:1020800069EF73E0CE014C960E94710B88A199A173
:10209000049709F09CC062ED71E0CE010A960E949F
:1020A0007A0BBE01645E7F4FCE0140960E94710B99
:1020B0008EED92E00E94D80B67ED71E08EED92E01C
:1020C0000E94EE0BCE0140960E94970A62EE71E0EC
:1020D000CE0101960E947A0B4C895D8968897989C5
:1020E000CE0101960E94DD0A811104C0CE01019645
:1020F0000E940B0BCE0101960E94D3080E94DF07BD
:10210000CE0101960E946C0BBE01665F7F4FCE012F
:1021100040960E94AB0A8823D1F06EEE71E08EEDFE
:1021200092E00E94DC0B60E072E0CE0101960E941A
:102130007A0BCE0101960E944206CE0101960E94C2
:102140006C0B8EED92E00E94D80B11E015C06BE095
:1021500072E08EED92E00E94DC0B6AE172E0CE014B
:1021600001960E947A0BCE0101960E944206CE0192
:1021700001960E946C0B10E0CE0140960E946C0B01
:10218000CE010A960E946C0B112319F08EE190E0AB
:1021900002C08AE590E00E945D0668EB7BE080E08B
:1021A00090E00E942F036DE671E0CE0101960E943F
:1021B0007A0BCE0101960E944206CE0101960E9442
:1021C0006C0B6CE671E089EF93E00E943E0B82E0BD
:1021D000888B86E28AA38CE10E942A08682F6F7799
:1021E0008CE10E94090887E08A87E12C8E01065F56
:1021F0001F4F9E01205F3F4FAE014F5F5F4F61E079
:10220000CE0182960E94C909811107C08889823057
:1022100031F48A85811103C009C0823039F06CE63F
:1022200071E0CE0146960E947A0B8EC18CE10E942D
:102230002A08682F6F778CE10E94090822242394D2
:10224000312C83E98983FF24F3941BA270E0703260
:10225000F1F430E73A839C818B8189279D8189271E
:102260009E8189278F83AE01485F5F4F67E0CE0173
:1022700001967DA30E9425097DA18111D3C0188AF2
:1022800043E04A87CE0107966C0199E01EC0272FD4
:102290002770288B372F35953595359582E0830F3C
:1022A000922FE0E18E9F900D11249A8391E02111ED
:1022B00001C090E0980FCC24C394D12CCC0EDD1E2D
:1022C000C80ED11C87E0831B8A87E8886E2D629533
:1022D000607F6E0D8AE17DA39CA30E9409088E0198
:1022E000005F1F4F9E01265F3F4FA6019CA1692FF3
:1022F000CE0101960E94C9097DA1823091F58CE141
:102300000E942A087DA185FD8ACF8F7109F480E2A1
:10231000282F30E0472F770F550B421753070CF04B
:102320007ECF782FC901019787709927259525952C
:10233000259531E0320F21E0009709F420E0230FCA
:10234000E1E0F0E0EC0FFD1FE20FF11D610102C0C2
:10235000CC0CDD1C8A95E2F7C6019081892B808325
:1023600076CF81115FC0703211F070E272CF8B8135
:10237000883819F052E044E002C053E043E080E0C6
:1023800090E0EBA02E2D30E0FC01E20FF31FE551B1
:10239000FC4F652F680FA1E0B0E0AC0FBD1FA60F8A
:1023A000B11D6C9161830196841770F38A85833027
:1023B00009F035CF8889811132CFAE014D5F5F4F73
:1023C00061E0C6010E94250981112CC09B81F601A4
:1023D0008181981324CF9C818281981320CF8081A2
:1023E00082FF17C0F394F2E0FF1205C085E98983EC
:1023F000F3E0FBA32BCF93E0C92EFC1005C087E9C7
:10240000898326E02BA322CFDD24D394FD1007CFB0
:1024100018CF8093F6038F2D880FF80EF394F09267
:10242000EB0302C08111FBCE65E272E0CE010196A2
:102430000E947A0BCE0101960E944206CE010196BF
:102440000E946C0B65E372E08EED92E00E94EE0B51
:102450006CE671E0CE0140960E947A0B10E080910C
:10246000EB03181708F05AC0812F90E09C0125510A
:102470003C4F7901F9018181803118F060ED71E004
:1024800002C068E571E08EED92E00E94EE0BF7016C
:10249000418150E060E070E020E18EED92E00E942A
:1024A0008F0BF7018181803118F060ED71E002C07F
:1024B00068E571E0CE0101960E947A0B4D815E8144
:1024C00069817A81CE0140960E94DD0ACE01019693
:1024D0000E946C0BF70181811B861A861D861C8663
:1024E0001F861E8640E1BE016F5F7F4F90E00E9415
:1024F0009814BE016F5F7F4FCE010A960E943E0B7B
:102500004E855F856A857B85CE0140960E94DD0AF7
:10251000CE010A960E946C0B1F5FA1CF8889998912
:102520009F8B8E8B8A899B89998F888F8C899D89B7
:102530009B8F8A8F198A188A1B8A1A8A1D8A1C8A7D
:10254000CE0140960E946C0B8A8D9B8D892B09F4DD
:10255000CBC06FE372E0CE010A960E947A0BBE01F7
:102560006A5E7F4FCE0140960E94710B8EED92E025
:102570000E94D80B67ED71E08EED92E00E94EE0BA9
:10258000CE0140960E94970A62EE71E0CE0101965C
:102590000E947A0B4C895D8968897989CE01019600
:1025A0000E94DD0A811104C0CE0101960E940B0B2E
:1025B000CE0101960E94D3080E94DF07CE0101964A
:1025C0000E946C0B0C891D890115110529F4E12C61
:1025D000F12C01E010E003C0EE24E394F12C6CE652
:1025E00071E0CE0101960E947A0B8C899D89E816D4
:1025F000F906C0F48017910708F48C01E889F9897D
:10260000E00FF11FD0801082688979896E0D7F1DDF
:10261000CE0101960E943E0B88899989FC01E00F4A
:10262000F11FD082BE01665F7F4FCE0101960E94EE
:10263000AB0A182FCE0101960E946C0B1123D1F02A
:102640006EEE71E08EED92E00E94DC0B60E072E0D5
:10265000CE0101960E947A0BCE0101960E9442069D
:10266000CE0101960E946C0B8EED92E00E94D80B79
:1026700011E015C06BE072E08EED92E00E94DC0B81
:102680006AE172E0CE0101960E947A0BCE010196BA
:102690000E944206CE0101960E946C0B10E0CE0112
:1026A00040960E946C0BCE010A960E946C0B11237F
:1026B00019F08EE190E002C08AE590E00E945D068C
:1026C00068EB7BE080E090E00E942F036DE671E014
:1026D000CE0101960E947A0BCE0101960E9442061D
:1026E000CE0101960E946C0BCE0146960E946C0BA7
:1026F000CE014C960E946C0B0E945E01FFC989EFCF
:1027000093E00C946C0B1092E1021092E00288EEC0
:1027100093E0A0E0B0E08093E2029093E302A09304
:10272000E402B093E50222E231E03093DF0220932D
:10273000DE0225EC30E03093EB022093EA0224EC39
:1027400030E03093ED022093EC0220EC30E0309347
:10275000EF022093EE0221EC30E03093F10220935F
:10276000F00222EC30E03093F3022093F20226ECE8
:1027700030E03093F5022093F4021092F7021092A9
:10278000F8021092F9021092FA021092810310924C
:102790008203109283031092840310928503109297
:1027A0008603109287031092880310928903109277
:1027B0008A0310928B0310928C0310928D03109257
:1027C0008E0310928F03109290031092890410923E
:1027D000880480938A0490938B04A0938C04B09314
:1027E0008D0484E391E09093870480938604109293
:1027F00071041092700480E591E090936F048093CF
:102800006E048EE0809372048FEF809373048FE0E8
:102810008093740480E18093750481E18093760451
:1028200082E18093770483E18093780410927904A5
:1028300010927A0410927B0410927C0410927D0412
:1028400061E08EE694E00E94140710920104109259
:102850000504109204041092060486E491E090931B
:1028600000048093FF0380E090E0FC01E150FC4F06
:10287000148E10A2178E11A206968C339105A9F71B
:1028800084E091E0909362048093610480E091E0A1
:10289000909364048093630484E080936504809340
:1028A000660488E091E09093600480935F048AE07E
:1028B00090E0909368048093670484EF91E0909394
:1028C0006A048093690410926D0410926C04109253
:1028D0005B0410925C0410925D0410925E041092EE
:1028E0006B046CE671E089EF93E00E947A0B8AE05A
:1028F0008093F7031092F8038091E7038C30A0F4E3
:1029000091E0980F9093E7038093E80390E0FC0137
:10291000EE0FFF1F8E0F9F1FFC01ED53FC4F88EB46
:102920009BE09283818308958FEF8093E80308955D
:10293000BB27FB015527AA27880F991FAA1FA41799
:1029400010F0A41B83955051B9F7A05DAA3308F08D
:10295000A95DA193009779F7B111B1931192CB01C1
:102960000C94B214DC01FC01672F71917723E1F71D
:10297000329704C07C916D9370836291AE17BF074C
:10298000C8F30895A1E21A2EAA1BBB1BFD010DC0BE
:10299000AA1FBB1FEE1FFF1FA217B307E407F5070F
:1029A00020F0A21BB30BE40BF50B661F771F881FEB
:1029B000991F1A9469F760957095809590959B0181
:1029C000AC01BD01CF010895052E97FB1EF40094C4
:1029D0000E94FB1457FD07D00E94C21407FC03D0CD
:1029E0004EF40C94FB1450954095309521953F4F33
:1029F0004F4F5F4F089590958095709561957F4FEB
:102A00008F4F9F4F08950E944D15A59F900DB49F25
:102A1000900DA49F800D911D11240895B7FF0C9473
:102A200003150E940315821B930B08952F923F926A
:102A30004F925F926F927F928F929F92AF92BF92CE
:102A4000CF92DF92EF92FF920F931F93CF93DF937A
:102A5000CDB7DEB7CA1BDB0B0FB6F894DEBF0FBED7
:102A6000CDBF09942A88398848885F846E847D8424
:102A70008C849B84AA84B984C884DF80EE80FD8026
:102A80000C811B81AA81B981CE0FD11D0FB6F8949C
:102A9000DEBF0FBECDBFED010895A29FB001B39F71
:102AA000C001A39F700D811D1124911DB29F700D57
:102AB000811D1124911D0895991B79E004C0991F6F
:102AC000961708F0961B881F7A95C9F78095089588
:102AD000EE0FFF1F0590F491E02D0994CF93DF9343
:102AE0008230910510F482E090E0E0919404F0913E
:102AF000950420E030E0C0E0D0E0309711F1408153
:102B0000518148175907C0F04817590761F482816D
:102B10009381209719F09B838A832BC0909395040F
:102B20008093940426C02115310519F042175307EC
:102B300018F49A01BE01DF01EF010280F381E02D5C
:102B4000DCCF2115310509F1281B390B2430310563
:102B500090F412968D919C9113976115710521F057
:102B6000FB019383828304C0909395048093940423
:102B7000FD01329644C0FD01E20FF31F8193919352
:102B8000225031092D933C933AC020919204309108
:102B90009304232B41F420911A0130911B013093AF
:102BA000930420939204209118013091190121156A
:102BB000310541F42DB73EB740911C0150911D01E4
:102BC000241B350BE0919204F0919304E217F30774
:102BD000A0F42E1B3F0B2817390778F0AC014E5F8D
:102BE0005F4F2417350748F04E0F5F1F5093930433
:102BF000409392048193919302C0E0E0F0E0CF0112
:102C0000DF91CF9108950F931F93CF93DF93009798
:102C100009F48CC0FC013297138212820091940453
:102C2000109195040115110581F420813181820FE5
:102C3000931F20919204309193042817390779F556
:102C4000F0939304E093920471C0D80140E050E007
:102C5000AE17BF0750F412962D913C911397AD011A
:102C60002115310509F1D901F3CF9D01DA01338333
:102C7000228360817181860F971F8217930769F401
:102C8000EC0128813981260F371F2E5F3F4F31839A
:102C900020838A819B8193838283452B29F4F0933F
:102CA0009504E093940442C01396FC93EE9312971C
:102CB000ED01499159919E01240F351FE217F30749
:102CC00071F480819181840F951F029611969C93D7
:102CD0008E938281938113969C938E931297E0E05A
:102CE000F0E0D80112968D919C911397009719F0FE
:102CF000F8018C01F6CF8D919C9198012E5F3F4F8A
:102D0000820F931F20919204309193042817390762
:102D100069F4309729F4109295041092940402C03B
:102D2000138212821093930400939204DF91CF9147
:102D30001F910F910895A0E0B0E0E1EAF6E10C9454
:102D40001A15EC01009721F4CB010E946E15B8C052
:102D5000FC01E60FF71F9C0122503109E217F3072F
:102D600008F4ACC0D9010D911C91119706171707F3
:102D7000B0F00530110508F49FC0C801049786170C
:102D8000970708F499C002501109061B170B01930D
:102D900011936D937C93CF010E9403168DC05B014C
:102DA000A01AB10A4C01800E911EA0919404B0911A
:102DB000950440E050E0E12CF12C109709F44AC052
:102DC000A815B905D1F56D907C901197630182E04B
:102DD000C80ED11CCA14DB0480F1A3014A195B0997
:102DE0006A0182E0C80ED11C1296BC90129713960D
:102DF000AC91B5E0CB16D10440F0B282A3835183ED
:102E00004083D9016D937C930AC00E5F1F4FC301AD
:102E1000800F911FF90191838083EB2DFA2FE1142C
:102E2000F10431F0D7011396FC93EE93129744C04E
:102E3000F0939504E09394043FC08D919C91119779
:102E40004817590708F4AC017D0112960D90BC910A
:102E5000A02DB3CF80919204909193048815990589
:102E6000E1F446175707C8F48091180190911901B1
:102E7000009741F48DB79EB740911C0150911D0100
:102E8000841B950BE817F907C8F4F0939304E093BB
:102E90009204F901718360830FC0CB010E946E150B
:102EA0007C01009759F0A801BE010E947217CE0163
:102EB0000E940316C70104C0CE0102C080E090E06A
:102EC000CDB7DEB7EEE00C94361581E090E0F894D3
:102ED0000C948B179111089581568A5108F48052F1
:102EE00085580895FB01DC0102C001900D9241500C
:102EF0005040D8F70895FB01DC018D9101908019B5
:102F00000110D9F3990B0895FB01DC0101900D929A
:102F10000020E1F7089510E0C2E6D0E004C0FE0111
:102F20000E9468152196C336D107C9F7F894FFCFE0
:102F300005040300090807063132334134353642AF
:102F4000373839432A3023440000960480000000BB
:102F50000000F50062098D003C01BE009C00B0003D
:102F6000000000000A02F6011C02E801EF01EC017A
:102F7000E901000000002B03D502A20200000000BE
:102F80000B0562091C021B02203000564D445056AE
:102F90005F317C315F564D4450560D0A00507269C6
:102FA000736C6F6E69206B6172746963752E2E008D
:102FB000417070726F78696D61746520796F757298
:102FC000206361726420746F20746865207265618B
:102FD0006465722E2E2E00564D4450455F003A32E5
:102FE0003A007C005F564D445045005345433D2018
:102FF00000202020202020202020202020202020F1
:10300000200031323334004D657373616765203AB7
:10301000200053616472EFBFBD616A3A5F00417581
:1030200074686F72697A65642061636365737300A5
:10303000446F7A766F6C6A656E6F002041636365DA
:1030400073732064656E696564005A616272616EB3
:103050006A656E6F00436974616D206B617274699B
:1030600063752E2E0055494420746167203A003262
:103070003920363020354120413900536572766F52
:0C308000206D6A656E6A616D2E2E2E00B8
:107E0000112484B714BE81FFF0D085E080938100F7
:107E100082E08093C00088E18093C10086E0809377
:107E2000C20080E18093C4008EE0C9D0259A86E02C
:107E300020E33CEF91E0309385002093840096BBD3
:107E4000B09BFECF1D9AA8958150A9F7CC24DD24C4
:107E500088248394B5E0AB2EA1E19A2EF3E0BF2EE7
:107E6000A2D0813461F49FD0082FAFD0023811F036
:107E7000013811F484E001C083E08DD089C08234E0
:107E800011F484E103C0853419F485E0A6D080C0E4
:107E9000853579F488D0E82EFF2485D0082F10E0AE
:107EA000102F00270E291F29000F111F8ED06801E7
:107EB0006FC0863521F484E090D080E0DECF843638
:107EC00009F040C070D06FD0082F6DD080E0C81688
:107ED00080E7D80618F4F601B7BEE895C0E0D1E017
:107EE00062D089930C17E1F7F0E0CF16F0E7DF06D8
:107EF00018F0F601B7BEE89568D007B600FCFDCFD4
:107F0000A601A0E0B1E02C9130E011968C91119780
:107F100090E0982F8827822B932B1296FA010C0160
:107F200087BEE89511244E5F5F4FF1E0A038BF0790
:107F300051F7F601A7BEE89507B600FCFDCF97BE46
:107F4000E89526C08437B1F42ED02DD0F82E2BD052
:107F50003CD0F601EF2C8F010F5F1F4F84911BD097
:107F6000EA94F801C1F70894C11CD11CFA94CF0C13
:107F7000D11C0EC0853739F428D08EE10CD085E9AC
:107F80000AD08FE07ACF813511F488E018D01DD067
:107F900080E101D065CF982F8091C00085FFFCCF94
:107FA0009093C60008958091C00087FFFCCF809118
:107FB000C00084FD01C0A8958091C6000895E0E648
:107FC000F0E098E1908380830895EDDF803219F02E
:107FD00088E0F5DFFFCF84E1DECF1F93182FE3DFCA
:107FE0001150E9F7F2DF1F91089580E0E8DFEE27F6
:047FF000FF270994CA
:027FFE00040479
:0400000300007E007B
:00000001FF